:100000000C9432000C944F000C944F000C944F0051
:100010000C944F000C944F000C944F000C944F0024
:100020000C944F000C944F000C944F000C944F0014
:100030000C944F000C944F000C944F000C944F0004
:100040000C944F000C944F000C944F000C944F00F4
:100050000C944F007A0087009400A100AE00BB0012
:10006000C800D50011241FBECFE5D8E0DEBFCDBF4C
:1000700010E0A0E6B0E0E8E0FEE002C005900D92DE
:10008000A038B107D9F720E0A0E8B0E001C01D9288
:10009000A639B207E1F70E947A030C9402070C9488
:1000A000000087B1806487B987B18F7787B986B13F
:1000B000816086B986B1826086B986B1846086B96E
:1000C00086B1806286B980B78F7D80BF80B78F7B15
:1000D00080BF80B78F7780BF87B1806287B908956E
:1000E00090E08830910508F06CC0FC01E65DFF4FA0
:1000F0000C94FC0687B18E7F87B987B18D7F87B955
:1001000087B18B7F87B987B1877F87B95AC087B19D
:10011000816087B987B18D7F87B987B18B7F87B9B8
:1001200087B1877F87B94DC087B18E7F87B987B187
:10013000826087B987B18B7F87B987B1877F87B99D
:1001400040C087B18E7F87B987B1826087B987B198
:100150008B7F87B987B1877F87B933C087B18E7F9F
:1001600087B987B18D7F87B987B1846087B987B137
:10017000877F87B926C087B1816087B987B18D7FB6
:1001800087B987B1846087B987B1877F87B919C07C
:1001900087B18E7F87B987B1826087B987B1846064
:1001A00087B987B1877F87B90CC087B1816087B96C
:1001B00087B1826087B987B1846087B987B1877F4B
:1001C00087B986B1806486B9349BFECF86B18061E1
:1001D00086B985B190E09093820080938100089564
:1001E00086B1806886B908958830D8F4613059F4B2
:1001F0009BB321E030E0082E02C0220F331F0A9487
:10020000E2F7292B2BBB61110CC09BB321E030E03E
:10021000082E02C0220F331F0A94E2F720952923EB
:100220002BBB98EF980F983008F5613071F498B3B4
:10023000482F50E04850510921E030E002C0220F21
:10024000331F4A95E2F7292B28BB61110FC098B3E1
:10025000482F50E04850510921E030E002C0220F01
:10026000331F4A95E2F72095292328BB90EF980F7A
:10027000983008F5613071F495B3482F50E0405143
:10028000510921E030E002C0220F331F4A95E2F706
:10029000292B25BB61110FC095B3482F50E0405169
:1002A000510921E030E002C0220F331F4A95E2F7E6
:1002B0002095292325BB97EE980F973008F56130DC
:1002C00071F492B3482F50E04851510921E030E0D9
:1002D00002C0220F331F4A95E2F7292B22BB61117E
:1002E0000FC042B390E0489721E030E0B90102C06E
:1002F000660F771F8A95E2F7CB018095842382BB36
:1003000008958830D8F4613059F49AB321E030E090
:10031000082E02C0220F331F0A94E2F7292B2ABBB2
:1003200061110CC09AB321E030E0082E02C0220F08
:10033000331F0A94E2F7209529232ABB98EF980FE0
:10034000983008F5613071F497B3482F50E0485069
:10035000510921E030E002C0220F331F4A95E2F735
:10036000292B27BB61110FC097B3482F50E048508D
:10037000510921E030E002C0220F331F4A95E2F715
:100380002095292327BB90EF980F983008F561300E
:1003900071F494B3482F50E04051510921E030E00E
:1003A00002C0220F331F4A95E2F7292B24BB6111AB
:1003B0000FC094B3482F50E04051510921E030E084
:1003C00002C0220F331F4A95E2F72095292324BB50
:1003D00097EE980F973008F5613071F491B3482F7C
:1003E00050E04851510921E030E002C0220F331F94
:1003F0004A95E2F7292B21BB61110FC041B390E070
:10040000489721E030E0B90102C0660F771F8A9556
:10041000E2F7CB018095842381BB08958830A8F44E
:1004200099B321E030E0A901082E02C0440F551F06
:100430000A94E2F7292F30E024233523082E02C046
:10044000359527950A94E2F701C020E098EF980FC0
:100450009830B8F496B3682F70E06850710921E0C5
:1004600030E0A901062E02C0440F551F0A94E2F79E
:10047000292F30E02423352302C0359527956A952E
:10048000E2F790EF980F9830B8F493B3682F70E0CC
:100490006051710921E030E0A901062E02C0440F2D
:1004A000551F0A94E2F7292F30E02423352302C098
:1004B000359527956A95E2F797EE980F9730C0F437
:1004C00060B3482F50E04851510981E090E09C0111
:1004D000042E02C0220F331F0A94E2F7862F90E009
:1004E0008223932302C0959587954A95E2F7282F9A
:1004F000822F0895CF93C82F0E940E02811105C04C
:1005000061E08C2F0E94F40004C060E08C2F0E94F8
:10051000F400CF910895CF93C82F60E081E00E944E
:10052000F40060E082E00E94F40060E083E00E945A
:10053000F4008BB38F709C2F907F892B8BBB61E075
:1005400083E00E94F4008FE39FE10197F1F700C080
:10055000000060E083E00E94F40060E083E00E941D
:10056000F4002BB330E1C39FC0011124922F9F7080
:10057000892B8BBB61E083E00E94F4008FE39FE155
:100580000197F1F700C0000060E083E00E94F400F2
:100590008FE39FE10197F1F700C00000CF9108952C
:1005A00061E084E00E94810161E085E00E948101B8
:1005B00061E086E00E94810161E087E00E948101A4
:1005C00061E081E00E94810161E082E00E9481019E
:1005D00061E083E00E94810183E30E948B0282E359
:1005E0000E948B0288E20E948B028EE00E948B02A6
:1005F00081E00E948B0286E00E948B020895CF93D7
:10060000C82F61E081E00E94F40060E082E00E9477
:10061000F40060E083E00E94F4008BB38F709C2FA5
:10062000907F892B8BBB61E083E00E94F4008FE315
:100630009FE10197F1F700C0000060E083E00E94B5
:10064000F40060E083E00E94F4002BB330E1C39F2C
:10065000C0011124922F9F70892B8BBB61E083E036
:100660000E94F4008FE39FE10197F1F700C00000C2
:1006700060E083E00E94F4008FE891E00197F1F7D9
:1006800000C00000CF9108950F931F93CF938C016A
:10069000C0E010C08FE19EE40197F1F700C00000B8
:1006A00080810E94FF028FE19EE40197F1F700C074
:1006B0000000CF5FF801EC0FF11D80818111EACFBE
:1006C000CF911F910F91089581E00E948B020895B0
:1006D00061E08CE00E948101089561E08DE00E945C
:1006E000810108958CE00E947A0208958DE00E94B5
:1006F0007A020895EDE8F0E080E895E2A0E0B0E04D
:1007000080839183A283B38381E08483158288E010
:100710008683178210860E94D00287B3886087BBC9
:100720000E9458040E9468030E946D030E945100B9
:100730008AB38E7F8ABB0E94F0002FEF80E792E0A1
:10074000215080409040E1F700C0000080E00E940E
:100750000304809380000E943A0588E790E00E949D
:1007600044038091800099E2899F812D1124829514
:100770008F70805D0E94FF0280918000CDEC8C9F85
:10078000812D1124869586958695805D0E94FF02B5
:10079000809180008C9FC12D1124C695C695C69569
:1007A000CC0F9C2F990F990FC90F8C1B805D0E9455
:1007B000FF022FEF89E698E1215080409040E1F759
:1007C00000C000000E9464038FE19EE40197F1F7EE
:1007D00000C0000080918000893220F088B38860DA
:1007E00088BB03C088B3877F88BB0E9472030E94C6
:1007F00076039FEF29E688E1915020408040E1F7A1
:1008000000C00000A3CFCF92DF92EF92FF92CF9370
:10081000811146C0C82F0E94700090938800809379
:100820008700BC01660F771F660F771F680F791F5F
:1008300080E090E00E94DF0520E030E04DE753E4E7
:100840000E943E056093830070938400809385002E
:100850009093860020E030E04AE754E40E946D0661
:100860006B017C01EC2FF0E0EE0FFF1FEE0FFF1F7E
:10087000E05AFF4F618170E080E090E00E94E10566
:100880009B01AC01C701B6010E943E050E94B00564
:100890006093890070938A0080938B0090938C0002
:1008A00080918900CF91FF90EF90DF90CF900895D5
:1008B0000F931F93CF93DF931F92CDB7DEB71982AB
:1008C00080B58F7780BD0DE810E0F80180819181BF
:1008D000A281B381880F991FAA1FBB1F880F991F80
:1008E000AA1FBB1F9C01AD01220F331F441F551FC0
:1008F000220F331F441F551F60E074E284EF90E025
:100900000E94DA06BA01A901415051096109710931
:10091000BB27A72F962F852F80BD49B98981806875
:100920008983F8018085882319F0813049F00FC050
:1009300089818E7F8983998180B5892B80BD07C08D
:10094000898181608983998180B5892B80BD80915F
:1009500093008630A1F018F4853031F030C0873034
:10096000C9F0883011F12BC089818D7F89838981FD
:100970008B7F8983998180B5892B80BD20C0898137
:100980008260898389818B7F8983998180B5892B56
:1009900080BD15C089818D7F898389818460898329
:1009A000998180B5892B80BD0AC089818260898345
:1009B000898184608983998180B5892B80BD8091EC
:1009C0009100882319F0813049F00FC08981877F19
:1009D0008983998180B5892B80BD07C08981886012
:1009E0008983998180B5892B80BD80919200813067
:1009F00079F018F08230B9F020C089818F7E898328
:100A000089818F7D8983998180B5892B80BD15C0AF
:100A100089818F7E8983898180628983998180B56C
:100A2000892B80BD0AC08981806189838981806228
:100A30008983998180B5892B80BD8091940088231A
:100A400019F0813029F007C08BB18D7F8BB903C0BD
:100A50008BB182608BB98AB188608AB98AB18061B2
:100A60008AB98AB180688AB90F90DF91CF911F91BE
:100A70000F9108955D9BFECF8CB908950E94520599
:100A80000C9433060E942C0658F00E94250640F074
:100A900029F45F3F29F00C941C0651110C94670651
:100AA0000C9422060E94440668F39923B1F355235F
:100AB00091F3951B550BBB27AA2762177307840771
:100AC00038F09F5F5F4F220F331F441FAA1FA9F307
:100AD00035D00E2E3AF0E0E832D091505040E695F5
:100AE000001CCAF72BD0FE2F29D0660F771F881F56
:100AF000BB1F261737074807AB07B0E809F0BB0B49
:100B0000802DBF01FF2793585F4F3AF09E3F51055C
:100B100078F00C941C060C9467065F3FE4F3983E53
:100B2000D4F3869577956795B795F7959F5FC9F745
:100B3000880F911D9695879597F90895E1E0660FC6
:100B4000771F881FBB1F621773078407BA0720F03F
:100B5000621B730B840BBA0BEE1F88F7E0950895A8
:100B60000E944C0688F09F5798F0B92F9927B751EB
:100B7000B0F0E1F0660F771F881F991F1AF0BA9541
:100B8000C9F714C0B13091F00E946606B1E0089533
:100B90000C946606672F782F8827B85F39F0B93F25
:100BA000CCF3869577956795B395D9F73EF49095F4
:100BB0008095709561957F4F8F4F9F4F0895E89472
:100BC00009C097FB3EF490958095709561957F4F95
:100BD0008F4F9F4F9923A9F0F92F96E9BB27939543
:100BE000F695879577956795B795F111F8CFFAF453
:100BF000BB0F11F460FF1BC06F5F7F4F8F4F9F4F84
:100C000016C0882311F096E911C0772321F09EE8E1
:100C1000872F762F05C0662371F096E8862F70E047
:100C200060E02AF09A95660F771F881FDAF7880F21
:100C30009695879597F9089597F99F6780E870E0F2
:100C400060E008959FEF80EC089500240A94161642
:100C5000170618060906089500240A9412161306AA
:100C6000140605060895092E0394000C11F4882338
:100C700052F0BB0F40F4BF2B11F460FF04C06F5F54
:100C80007F4F8F4F9F4F089557FD9058440F551F2A
:100C900059F05F3F71F04795880F97FB991F61F0FE
:100CA0009F3F79F087950895121613061406551F75
:100CB000F2CF4695F1DF08C0161617061806991FE1
:100CC000F1CF86957105610508940895E894BB27D6
:100CD00066277727CB0197F908950E9480060C9428
:100CE00033060E94250638F00E942C0620F095233A
:100CF00011F00C941C060C94220611240C94670627
:100D00000E94440670F3959FC1F3950F50E0551F64
:100D1000629FF001729FBB27F00DB11D639FAA2750
:100D2000F00DB11DAA1F649F6627B00DA11D661F9F
:100D3000829F2227B00DA11D621F739FB00DA11DC0
:100D4000621F839FA00D611D221F749F3327A00D7A
:100D5000611D231F849F600D211D822F762F6A2F16
:100D600011249F5750409AF0F1F088234AF0EE0F7B
:100D7000FF1FBB1F661F771F881F91505040A9F7A8
:100D80009E3F510580F00C941C060C9467065F3F53
:100D9000E4F3983ED4F3869577956795B795F795E4
:100DA000E7959F5FC1F7FE2B880F911D969587955C
:100DB00097F90895A1E21A2EAA1BBB1BFD010DC0D5
:100DC000AA1FBB1FEE1FFF1FA217B307E407F507FB
:100DD00020F0A21BB30BE40BF50B661F771F881FD7
:100DE000991F1A9469F760957095809590959B016D
:100DF000AC01BD01CF010895EE0FFF1F0590F491E6
:080E0000E02D0994F894FFCFE6
:100E0800000A00960000000000000000000000003A
:100E1800000000000000000054656D70203A2000BA
:00000001FF
