S00E0000426C696E6B792E73726563AD
S11300000C942A000C9434000C9434000C943400A6
S11300100C9434000C9434000C9434000C9434008C
S11300200C9434000C9434000C9434000C9434007C
S11300300C9434000C9434000C9434000C9434006C
S11300400C9434000C9434000C9434000C9434005C
S11300500C94340011241FBECFE5D8E0DEBFCDBF21
S11300600E9436000C944E000C94000087B381600B
S113007087BB87B3826087BB98B381E0892788BB3D
S113008098B382E0892788BB2FEF89E698E1215055
S113009080409040E1F700C00000EECFF894FFCF1D
S9030000FC
