S01000004156525F4750494F2E737265639D
S11300000C942A000C9434000C9434000C943400A6
S11300100C9434000C9434000C9434000C9434008C
S11300200C9434000C9434000C9434000C9434007C
S11300300C9434000C9434000C9434000C9434006C
S11300400C9434000C9434000C9434000C9434005C
S11300500C94340011241FBECFE5D8E0DEBFCDBF21
S11300600E9436000C9447000C94000087B3816012
S113007087BB98B381E0892788BB2FEF89E698E195
S1130080215080409040E1F700C00000F2CFF89486
S1050090FFCF9C
S9030000FC
